:0400000072EF03F0A8
:1001E9003131313100C5861AEC01F01200F7EC000B
:1001F900F0C9501200C5821AEC01F01200C5801A2C
:10020900EC01F01200C5841AEC01F01200016E0134
:10021900C0C9FF1AEC01F012000F0EC16E1E0E9339
:100229006EF19E8150E009816E12009EA61FEF01BA
:10023900F021EF01F01AEF01F09E961200948694D6
:1002490088280EC66E310EC86EC79CC78E9E96A1B1
:100259009612006DEC01F0C2EC03F011EC01F0BA5A
:10026900EC01F023EC01F01200016E9EA83FEF01B2
:10027900F041EF01F03AEF01F001C0ADFF120010BB
:100289006E000E016E0F50D1EC01F0010E016E10DF
:0702990050D1EC01F012004E
:1002A1004F4E00474E004731004732004733004769
:1002B1003400473500475200432000036E03EC0130
:1002C100F0D00E0BEC01F003500BEC01F002500BDF
:1002D100EC01F007EC01F01200C08EC09AC088C09A
:1002E10096C090C082C094C292C19AC198000EC4B7
:1002F1006E000EC36EC280120001500302F3CF05DF
:10030100F0F4CF06F001500402F350062602500328
:1003110002F350062605C001F006C002F0120002E9
:100321006E03EC01F0D00E0BEC01F002500BEC016E
:10033100F0FFEC00F0D10E0BEC01F0FBEC00F00350
:100341006E07EC01F003501200026E03EC01F0A005
:100351000E0BEC01F002500BEC01F0FFEC00F0A1F0
:100361000E0BEC01F0FBEC00F0036E07EC01F00367
:10037100501200948E949CAC8AAC84AB8EAB9CAB37
:100381009AAB88AB96AB94AB92AB90B88CB898B85B
:1003910096B892B890810EAF6E9E989D8A9E9A12E1
:1003A10000026E01B0D7EF01F0DAEF01F08282DBDB
:1003B100EF01F0829202C083FF82848294958E8243
:1003C1008082928284829483BEE9EF01F0EBEF0197
:1003D100F0E2EF01F08290959E1200056E03EC01B0
:1003E100F0A00E0BEC01F005500BEC01F002500BEC
:1003F100EC01F007EC01F0030E046EE80E036E034E
:1004010006D8A00406032806E10428D8A40BEF02AD
:10041100F00DEF02F000EF02F01200076E07C003CB
:10042100F0D8900336D8900336C250C30B0310C2E4
:100431006EC282C2B21FEF02F021EF02F01AEF0288
:10044100F0C350C4CF03F0046A03C004F0036A038D
:1004510010056E0450066E05C001F006C002F012D0
:100461000047EF02F002C0F6FF03C0F7FFF86A058C
:100471000EF76403D00800F55005D0F6CFE9FFF779
:10048100CFEAFFEF5039EC01F0024A032A02C0F62D
:10049100FF03C0F7FFF86A050EF76403D00800F503
:1004A1005005D0F6CFE9FFF7CFEAFFEF500009D8AA
:1004B100A45DEF02F05FEF02F033EF02F0120003F0
:1004C100500410D8B467EF02F069EF02F08DEF022B
:1004D100F0010E056E71EF02F0D890033604360577
:1004E1002A04AE76EF02F078EF02F06DEF02F0032E
:1004F10050015C04500258D8A081EF02F083EF0252
:10050100F087EF02F00350015E0450025AD89004C4
:10051100320332052E78EF02F001C001F002C00271
:10052100F01200000E016E0950D1EC01F0AFEF02A4
:10053100F0010E016E07C0F6FF08C0F7FFF86A056B
:100541000EF76403D00800F55005D0F6CFE9FFF7A8
:10055100CFEAFFEF50D1EC01F0074A082A07C0F6B5
:10056100FF08C0F7FFF86A050EF76403D00800F52D
:100571005005D0F6CFE9FFF7CFEAFFEF500009D8D9
:10058100A4C5EF02F0C7EF02F099EF02F01200CE1E
:10059100EF02F0014A022A034A042A03C0D9FF04E8
:1005A100C0DAFF01C0E1FF02C0E2FFDE50E618D869
:1005B100A4DDEF02F0DFEF02F0EBEF02F001C0D9B2
:1005C100FF02C0DAFFDF50D8A4E9EF02F0EBEF023F
:1005D100F0CAEF02F001C0D9FF02C0DAFFDF500517
:1005E1006E03C0D9FF04C0DAFFDF50066E06500566
:1005F1005C016E026AD8A002061200566965772076
:100601006C6F672020202020202020000000646FD4
:10061100776E6C6F6164206C6F6720202020200052
:1006210000646F776E6C6F6164206C6F67202020AF
:1006310020000000436C656172206C6F67202020F0
:10064100202020200000005365742074696D65200E
:10065100000000000000000000004368616E676553
:100661002070617373776F726420202020016E0106
:1006710004D8A43EEF03F040EF03F064EF03F0531E
:10068100EC05F05C6E5C28D8B449EF03F04BEF0346
:10069100F058EF03F05E50D8B451EF03F053EF037D
:1006A100F058EF03F0000E5E6E5C5071EF03F05CEA
:1006B10028D8A45EEF03F060EF03F070EF03F001C0
:1006C1000E5E6E70EF03F00150D8A46AEF03F06C78
:1006D100EF03F070EF03F053EC05F071EF03F0FF5F
:1006E1000E1200FC0EF66E050EF76E000EF86E028D
:1006F100EE00F010EE72F00900F5CFEEFFE550E1EB
:1007010050FAE1A10EF66E020EF76E000EF86E01C0
:10071100EEAAF010EE1BF00900F5CFEEFFE550E177
:1007210050FAE1E90EF66E010EF76E000EF86E005A
:10073100EEF0F010EE05F00900F5CFEEFFE550E127
:1007410050FAE1000EF66E300EF76E000EF86E09EB
:1007510000F5CF5EF001EE00F0AA0EEE6AE806FDAC
:10076100E100EE60F05C0EEE6AE806FDE100EE4BA2
:10077100F0130EEE6AE806FDE1000EF86E0001DEF0
:10078100EF0AF0000E956E9450F80B946E8290C3B0
:100791000E036ECD0EE82EFED7032EFCD700F0001F
:1007A1000E016E330ED1EC01F01B0E036E9E0EE8AE
:1007B1002EFED7032EFCD700D0000E016E330ED1D2
:1007C100EC01F0A60EE82EFED700D0000E016E332C
:1007D1000ED1EC01F000D000D000F0000E016E024D
:1007E1000ED1EC01F0A60EE82EFED700D0000E01CE
:1007F1006E380ED1EC01F0A60EE82EFED700D00027
:100801000E016E010ED1EC01F0040E036E3E0EE8F6
:100811002EFED7032EFCD7000E016E0C0ED1EC017B
:10082100F0A60EE82EFED700D01200000E0E6E0AC2
:10083100BE1FEF04F01DEF04F025EF04F0096C0A70
:100841001ED8B00A2A010E0E6E0CBE2CEF04F02A3F
:10085100EF04F030EF04F00B6C0C1ED8B00C2A0B37
:10086100500C10D8B437EF04F039EF04F05DEF0409
:10087100F0010E0D6E41EF04F0D8900B360C360DE1
:100881002A0CAE46EF04F048EF04F03DEF04F00B04
:1008910050095C0C500A58D8A051EF04F053EF04F2
:1008A100F057EF04F00B50095E0C500A5AD8900C27
:1008B100320B320D2E48EF04F00E50D8B463EF0422
:1008C100F065EF04F069EF04F0096C0A1ED8B00A74
:1008D1002A09C009F00AC00AF01200000E066E04CF
:1008E100BE77EF04F075EF04F07DEF04F0036C04C4
:1008F1001ED8B0042A010E066E02BE84EF04F082F7
:10090100EF04F08AEF04F0016C021ED8B0022A0154
:100911000E061A000E086E000E076E03500410D862
:10092100B495EF04F097EF04F0BFEF04F0010E056A
:100931006E9FEF04F0D89003360436052A04AEA466
:10094100EF04F0A6EF04F09BEF04F0D8900736080F
:10095100360350015C04500258D8A0B2EF04F0B441
:10096100EF04F0B9EF04F00350015E0450025A079E
:1009710080D89004320332052EA6EF04F00650D839
:10098100B4C5EF04F0C7EF04F0CBEF04F0076C0837
:100991001ED8B0082A07C001F008C002F0120041B9
:1009A100344234486E4850D8A4D9EF04F0DBEF0448
:1009B100F0E5EF04F0000E3F6E000E406E000E41B8
:1009C1006E000E426E52EF05F03FC043F040C0444E
:1009D100F041C045F042C046F0200EF5EF04F0D8DA
:1009E100904632453244324332E82EF0EF04F04370
:1009F10050476E418EFF0E3F16FF0E4016FF0E410F
:100A010016000E4216960E485E48BE0CEF05F00A1F
:100A1100EF05F022EF05F04850800A970FD8B01487
:100A2100EF05F016EF05F018EF05F0DBEF04F0D855
:100A3100904232413240323F32483E18EF05F03A9F
:100A4100EF05F01F0E486428EF05F02AEF05F0329C
:100A5100EF05F0DBEF04F0D8903F364036413642E7
:100A61003648064850D8A438EF05F03AEF05F02C87
:100A7100EF05F04750D8B440EF05F042EF05F04ADA
:100A8100EF05F0421E411E401E3F6C000E40224108
:100A91002242223FC03FF040C040F041C041F042FD
:100AA100C042F01200819A818C818E81B25BEF0588
:100AB100F05DEF05F060EF05F0010ED6EF05F08176
:100AC100B465EF05F067EF05F06AEF05F0040ED6A7
:100AD100EF05F081B66FEF05F071EF05F074EF05EA
:100AE100F0070ED6EF05F081B879EF05F07BEF0541
:100AF100F07EEF05F00A0ED6EF05F0818A819C8128
:100B01008E81B286EF05F088EF05F08BEF05F002DC
:100B11000ED6EF05F081B490EF05F092EF05F09558
:100B2100EF05F0050ED6EF05F081B69AEF05F09CC2
:100B3100EF05F09FEF05F0080ED6EF05F081B8A4A0
:100B4100EF05F0A6EF05F0A9EF05F00B0ED6EF05C6
:100B5100F0818A818C819E819E81B2B2EF05F0B4D1
:100B6100EF05F0B7EF05F0030ED6EF05F081B4BC49
:100B7100EF05F0BEEF05F0C1EF05F0060ED6EF056B
:100B8100F081B6C6EF05F0C8EF05F0CBEF05F0092F
:100B91000ED6EF05F081B8D0EF05F0D2EF05F0D514
:100BA100EF05F00C0ED6EF05F0FF0E1200106E10DF
:100BB10050D8B4DEEF05F0E0EF05F002EF06F00BE0
:100BC100BEE7EF05F0E5EF05F002EF06F008C00C17
:100BD100F009C00DF00AC00EF00BC00FF00C1E0D95
:100BE1001E0E1E0F1E0C2A000E0D220E220F220CAD
:100BF100C012F00DC013F00EC014F00FC015F00AB2
:100C0100EF06F008C012F009C013F00AC014F00B8F
:100C1100C015F0085009100A100B10D8A413EF06E4
:100C2100F015EF06F01FEF06F0000E086E000E093A
:100C31006E000E0A6E000E0B6EB0EF06F0960E11EE
:100C41006E29EF06F0112AD89015321432133212A0
:100C510032000E12140C6E000E13140D6E000E14E1
:100C6100140E6EFE0E15140F6E0C500D100E100F9B
:100C710010D8A43EEF06F040EF06F023EF06F04E49
:100C8100EF06F0112A010E1226000E13221422156E
:100C910022D8901532143213321232000E12140C73
:100CA1006E000E13140D6E000E14140E6EFF0E1551
:100CB100140F6E0C500D100E100F10D8A463EF0618
:100CC100F065EF06F042EF06F06DEF06F01106D881
:100CD10090123613361436153614BE72EF06F074C0
:100CE100EF06F07CEF06F0020E11607AEF06F07C61
:100CF100EF06F067EF06F011B081EF06F083EF0623
:100D0100F084EF06F0149ED890113211C00CF00D52
:100D11006A0E6A0F6A0CC00FF00E6A0D6A0C6A0C3B
:100D21005012120D5013120E5014120F50151210B2
:100D310050D8B49EEF06F0A0EF06F0A8EF06F00B36
:100D4100BEA7EF06F0A5EF06F0A8EF06F0158E128C
:100D5100C008F013C009F014C00AF015C00BF0125E
:100D6100001950800B266E195019242D6E18AEBC37
:100D7100EF06F0BEEF06F0BFEF06F02D802D50D844
:100D8100B4C5EF06F0C7EF06F0DCEF06F02D28D86A
:100D9100A4CDEF06F0CFEF06F0D7EF06F0000E1668
:100DA1006E000E176E000E186E000E196E188E0072
:100DB1000E196EE4EF06F0000E166E000E176E00AF
:100DC1000E186E000E196E1D50800B261A1D501D37
:100DD100242E6E1CAEEFEF06F0F1EF06F0F2EF06F7
:100DE100F02E802E50D8B4F8EF06F0FAEF06F00F8F
:100DF100EF07F02E28D8A400EF07F002EF07F00A62
:100E0100EF07F0000E1A6E000E1B6E000E1C6E0036
:100E11000E1D6E1C8E000E1D6E17EF07F0000E1AD0
:100E21006E000E1B6E000E1C6E000E1D6E1A501B06
:100E3100101C101D10D8A420EF07F022EF07F03A84
:100E4100EF07F0000E166E000E176E000E186E0002
:100E51000E196E800E18127F0E19122650191216D5
:100E6100C016F017C017F018C018F019C019F07D9E
:100E7100EF08F02D50D8A440EF07F042EF07F04CF7
:100E8100EF07F0000E166E000E176E000E186E00C2
:100E91000E196E7DEF08F02E502DC01EF01F6A1E38
:100EA1005E000E1F5A7F0E1E24276E000E1F202883
:100EB1006E16C022F017C023F018C024F019C02507
:100EC100F0000E166E000E176E000E186E000E1951
:100ED1006E000E296E000E2A6E000E2B6E000E2C77
:100EE1006E000E2E6EADEF07F02E50D8B47BEF07DB
:100EF100F07DEF07F094EF07F0D8902236233624E7
:100F0100362536D89016361736183619362CAE8C4B
:100F1100EF07F08EEF07F08FEF07F01680D89029DA
:100F2100362A362B362C361A50225C1B5023581C7D
:100F31005024581D502558D8A0A1EF07F0A3EF0762
:100F4100F0ACEF07F02C8C1A50225E1B50235A1C78
:100F510050245A1D50255A2E2A190E2E64B3EF071C
:100F6100F0B5EF07F075EF07F0225023102410259C
:100F710010D8B4BEEF07F0C0EF07F0D8EF07F029A3
:100F810080D8EF07F0D89016361736183619362C58
:100F9100AECDEF07F0CFEF07F0D0EF07F01680D816
:100FA1009029362A362B362C362706D8A028061843
:100FB100AEDDEF07F0DFEF07F0C3EF07F0000E2E15
:100FC1006E2CAEE6EF07F0E8EF07F00CEF08F0FF4C
:100FD1000E29141E6EFF0E2A141F6EFF0E2B1420F5
:100FE1006E7F0E2C14216E1E501F1020102110D860
:100FF100B4FDEF07F0FFEF07F003EF08F0010E2E4D
:101001006E0CEF08F016A008EF08F00AEF08F00CDC
:10101100EF08F0FFEF07F02E50D8B412EF08F014EC
:10102100EF08F038EF08F0010E1626000E1722180F
:1010310022192219A01FEF08F021EF08F038EF085C
:10104100F016C01EF017C01FF018C020F019C02103
:10105100F02134213220321F321E321EC016F01F01
:10106100C017F020C018F021C019F0274A282A28FB
:10107100BE43EF08F0285008E12728D8A043EF0825
:10108100F045EF08F050EF08F0000E286E276800D9
:101091000E166E000E176E000E186E000E196E28D9
:1010A100BE5DEF08F0285006E12704D8B05BEF08D9
:1010B100F05DEF08F06BEF08F0000E286E000E27D0
:1010C1006E000E166E000E176E000E186E000E19D1
:1010D1006E000E266E27C02DF02DA072EF08F07461
:1010E100EF08F077EF08F0188E78EF08F0189ED827
:1010F100902D30196E2EEF07F012003250800B3B0D
:101101006E325032243D6E31AE89EF08F08BEF081C
:10111100F08CEF08F03D803D50D8B492EF08F09488
:10112100EF08F0A9EF08F03D28D8A49AEF08F09C49
:10113100EF08F0A4EF08F0000E2F6E000E306E00E5
:101141000E316E000E326E318E000E326EB1EF082E
:10115100F0000E2F6E000E306E000E316E000E325A
:101161006E3650800B3C6E3B503C18D8B4BBEF0838
:10117100F0BDEF08F0BEEF08F03B8C365036243C52
:101181006E35AEC6EF08F0C8EF08F0C9EF08F03CC5
:10119100803C50D8B4CFEF08F0D1EF08F0E6EF086B
:1011A100F03C28D8A4D7EF08F0D9EF08F0E1EF0818
:1011B100F0000E336E000E346E000E356E000E36EA
:1011C1006E358E000E366EEEEF08F0000E336E00B7
:1011D1000E346E000E356E000E366E3D503C5CD8FE
:1011E100B0F5EF08F0F7EF08F01EEF09F03BACFCAB
:1011F100EF08F0FEEF08F000EF09F0800E3B1A3D1A
:10120100C03EF03CC03DF03EC03CF02FC03EF0334C
:10121100C02FF03EC033F030C03EF034C030F03E5D
:10122100C034F031C03EF035C031F03EC035F0324F
:10123100C03EF036C032F03EC036F0000E3E6E3D8C
:10124100503CC037F0386A375E000E385A38BE332A
:10125100EF09F0385009E11A0E375CD8A033EF09D5
:10126100F035EF09F06CEF09F02F503010311032EA
:1012710010D8A43EEF09F041EF09F0010E42EF0949
:10128100F0000E3E6E000E2F6E000E306E000E311D
:101291006E000E326E3CC03DF075EF09F03EA05479
:1012A100EF09F056EF09F05CEF09F0D8903E3001FC
:1012B100093E6E5EEF09F0D8903E322FA063EF0930
:1012C100F065EF09F066EF09F03E8E3234323231CB
:1012D1003230322F323D2A3C503D5CD8A073EF09A9
:1012E100F075EF09F04FEF09F03BBC7AEF09F07CA4
:1012F100EF09F0BCEF09F03D50D8A482EF09F0846A
:10130100EF09F08EEF09F0000E2F6E000E306E0027
:101311000E316E000E326EDDEF0AF033502F26349F
:10132100503022355031223650322232A09BEF0903
:10133100F09DEF09F049EF0AF03EA0A2EF09F0A4F9
:10134100EF09F0AAEF09F0D8903E3001093E6EACEA
:10135100EF09F0D8903E322FA0B1EF09F0B3EF09B9
:10136100F0B4EF09F03E8E32343232313230322F66
:10137100323D2A49EF0AF033502F5C345030583552
:101381005031583250800A376E3650800A3758D85B
:10139100B0CDEF09F0CFEF09F0FAEF09F02F50339C
:1013A1005C376E30503458386E31503558396E32A2
:1013B1005036583A6EFF0E37242F6EFF0E3820300C
:1013C1006EFF0E3920316EFF0E3A20326E800E3BD9
:1013D1001A3E6C3E50D8A4F0EF09F0F2EF09F0028A
:1013E100EF0AF0010E2F26000E30223122322202A6
:1013F100EF0AF033502F5E3450305A3550315A369F
:1014010050325A2F50301031103210D8A40BEF0A3D
:10141100F00DEF0AF042EF0AF03E50D8A413EF0AA4
:10142100F015EF0AF042EF0AF0000E2F6E000E30B9
:101431006E000E316E000E326EDDEF0AF0D8902F85
:10144100363036313632363EAE29EF0AF02BEF0A0E
:10145100F02CEF0AF02F803EA031EF0AF033EF0AB3
:10146100F037EF0AF0D8803E3639EF0AF0D8903ED7
:10147100363D50D8B43FEF0AF041EF0AF042EF0A8F
:10148100F03D0631AE47EF0AF049EF0AF01FEF0ACF
:10149100F0000E3C6E3EAE50EF0AF052EF0AF06AD9
:1014A100EF0AF03EC037F07F0E3716D8B45BEF0A73
:1014B100F05DEF0AF061EF0AF0010E3C6E6AEF0A8F
:1014C100F02FA066EF0AF068EF0AF06AEF0AF05D0C
:1014D100EF0AF03C50D8B470EF0AF072EF0AF09DB9
:1014E100EF0AF0010E2F26000E3022312232223275
:1014F100A07DEF0AF07FEF0AF09DEF0AF02FC037D1
:10150100F030C038F031C039F032C03AF03A343AF4
:101511003239323832373237C02FF038C030F039F3
:10152100C031F03AC032F03D28D8B49AEF0AF09CAD
:10153100EF0AF09DEF0AF03D2A3D28D8B4A3EF0A47
:10154100F0A5EF0AF0ADEF0AF03D50D8A4ABEF0AD9
:10155100F0ADEF0AF0BFEF0AF0000E2F6E000E3073
:101561006E000E316E000E326E3D50D8A4BBEF0AF4
:10157100F0BDEF0AF0BFEF0AF0000E3B6E3DA0C4D4
:10158100EF0AF0C6EF0AF0C9EF0AF0318ECAEF0A8E
:10159100F0319ED8903D30326E3BAED2EF0AF0D49E
:1015A100EF0AF0D5EF0AF0328E2FC02FF030C030A5
:1015B100F031C031F032C032F012002EEC01F057A0
:1015C1000E076E2F0E086E800E096E92EC02F0006F
:1015D100019B519C11D8A4F0EF0AF0F2EF0AF0112F
:1015E100EF0BF0000EEB6F030EEB65FAEF0AF0FC68
:1015F100EF0AF0FEEF0AF00DEF0BF0F00EEB25D93C
:101601006EDA6A000EDA22DF50026EEB51EEEC0167
:10161100F00001EB2BF4EF0AF0000E9C6F010E9B22
:101621006FAE51D8A417EF0BF019EF0BF03FEF0B92
:10163100F0000EE76F030EE76521EF0BF023EF0BD0
:10164100F025EF0BF033EF0BF06B0EE725D96EDAD7
:101651006A000EDA22EB51A5EC01F0DF6E0001E722
:101661002B1BEF0BF06B0EE725D96EDA6A000EDA51
:1016710022000EDF6E010EAD6F63EF0BF0AE05D8E9
:10168100A445EF0BF047EF0BF04BEF0BF0010EAC65
:101691006F63EF0BF0020EAE19D8A452EF0BF054AA
:1016A100EF0BF058EF0BF0010EAB6F63EF0BF00394
:1016B1000EAE19D8A45FEF0BF061EF0BF063EF0BE7
:1016C100F0010EA96FAD51D8B469EF0BF06BEF0BC0
:1016D100F04BEF0CF0570E076E2F0E086E800E09BF
:1016E1006E92EC02F0010E0001A06FB30E076E00C6
:1016F1000E086EC00E096E92EC02F09BC001F09CC8
:10170100C002F0000E046E030E036E7DEC01F0AA20
:101711000E0124076E010E0220086EC90E096E9299
:10172100EC02F0010E37EC03F00001E56F020EE56B
:1017310019D8A49EEF0BF0A0EF0BF0B2EF0BF09CC9
:10174100BFAEEF0BF09C5107E1070E9B5DD8B0AC2B
:10175100EF0BF0AEEF0BF0B2EF0BF09B4B9C2B01BC
:101761000EA16F030EE519D8A4B9EF0BF0BBEF0B77
:10177100F0D8EF0BF09CBFC7EF0BF09C5109E102D1
:101781000E9B5DD8A0C7EF0BF0C9EF0BF0D8EF0BA4
:10179100F0080E9B199C11D8B4D1EF0BF0D3EF0BCD
:1017A100F0D8EF0BF09B07D8A09C07010EA16FE5C5
:1017B10005D8A4DEEF0BF0E0EF0BF0EEEF0BF0003D
:1017C1000E016E010ED1EC01F0000E00019C6F08BC
:1017D1000E9B6F010EA16F000EAE6FAE0E1A6E471B
:1017E1000E1B6E250E1C6E410E1D6E040E0EEC02BC
:1017F100F001C008F002C009F00A6A0B6A000ED7B6
:10180100EC05F008C016F009C017F00AC018F00B7B
:10181100C019F0B1EC06F016C03FF017C040F01847
:10182100C041F019C042F0D0EC04F03F500001B1CA
:101831006FCE0E0F6EB1C001F0026A000E046E0A87
:101841000E036E6EEC04F00150300F44EC01F0CF4A
:101851000E0F6EB1C009F00A6A000E0C6E0A0E0B73
:101861006E16EC04F00950300F44EC01F00B0E0041
:1018710001E519D8A43FEF0CF041EF0CF04BEF0C50
:10188100F0000E016E010ED1EC01F0010E0001AE6F
:101891006F000EAD6FAC51D8B451EF0CF053EF0C9B
:1018A100F034EF0EF0000EDE6F000ECD6F030EE28E
:1018B1006FE251D8B45FEF0CF061EF0CF089EF0DDE
:1018C100F09F51D8A467EF0CF069EF0CF071EF0CA9
:1018D100F0020E076E2F0E086E800E096E92EC025A
:1018E100F0010E37EC03F00001DE6F040E9F617C06
:1018F100EF0CF07EEF0CF0B2EF0CF00B0EDE19D80E
:10190100A485EF0CF087EF0CF099EF0CF0D40E9F4B
:1019110025D96EDA6A000EDA22310EDF6E9F51C0D0
:101921000F0F6E2A0E44EC01F000019F2B59EF0CB2
:10193100F00C0EDE19D8A4A0EF0CF0A2EF0CF032DF
:10194100EF0EF0D40E9F25D96EDA6A000EDA22303E
:101951000EDF6E9F51C00F0F6E2A0E44EC01F09501
:10196100EF0CF0040E9F19D8A4B9EF0CF0BBEF0CEB
:10197100F032EF0EF0A00E846F860E856F010E8699
:101981006F000E876FFF0E8427FF0E8523FF0E86E3
:1019910023FF0E872384290AE1852908E186290688
:1019A100E18729D8A4D7EF0CF0D9EF0CF0C3EF0CE5
:1019B100F0E207D40E9F25D96EDA6A000EDA220012
:1019C1000EDF6ED40E016E000E026EF00E036E007D
:1019D1000E046EC8EC02F001500210D8A4F3EF0C13
:1019E100F0F5EF0CF039EF0DF0000E016E010ED1A4
:1019F100EC01F0460E076E2F0E086E800E096E92F6
:101A0100EC02F0BF0E076E2F0E086EC00E096E922B
:101A1100EC02F0200E0001846FA10E856F070E8687
:101A21006F000E876FFF0E8427FF0E8523FF0E8642
:101A310023FF0E872384290AE1852908E1862906E7
:101A4100E18729D8A427EF0DF029EF0DF013EF0D51
:101A5100F0020EAE6F000EAC6F800E0F6E2A0E44B8
:101A6100EC01F0C00E0F6E200E44EC01F034EF0ECD
:101A7100F0000E016E010ED1EC01F0000E00019F8D
:101A81006FE00E076E2F0E086E800E096E92EC024B
:101A9100F0C00E0F6E0001E251300F44EC01F0EA8C
:101AA1000E076E2F0E086EC20E096E92EC02F02028
:101AB1000E0001846FA10E856F070E866F000E87E1
:101AC1006FFF0E8427FF0E8523FF0E8623FF0E87EF
:101AD1002384290AE1852908E1862906E18729D895
:101AE100A475EF0DF077EF0DF061EF0DF0000E0131
:101AF1006E010ED1EC01F0790E076E2F0E086E808B
:101B01000E096E92EC02F0000E00019F6F59EF0C6E
:101B1100F0E251D8A48FEF0DF091EF0DF059EF0CD9
:101B2100F0010EE86F000E016E010ED1EC01F0988C
:101B31000E076E2F0E086E800E096E92EC02F0B247
:101B41000E076E2F0E086EC00E096E92EC02F09019
:101B51000E0001846FD00E856F030E866F000E8715
:101B61006F1AEF0EF08405851186118711D8A4BC78
:101B7100EF0DF0BEEF0DF01AEF0EF0900E846FD066
:101B81000E856F030E866F000E876FCD0E0F6EE808
:101B9100C001F0026A000E046E640E036E6EEC0466
:101BA100F00150300F44EC01F0CE0E0F6E000E0428
:101BB1006E0A0E036EE8C001F0026A6EEC04F001D9
:101BC100C009F002C00AF0000E0C6E0A0E0B6E1670
:101BD100EC04F00950300F44EC01F0CF0E0F6EE829
:101BE100C009F00A6A000E0C6E0A0E0B6E16EC04A8
:101BF100F00950300F44EC01F00001E82B790EE8B8
:101C010019D8A406EF0EF008EF0EF01AEF0EF0004F
:101C11000E016E010ED1EC01F0010E0001AE6F005C
:101C21000E846F000E856F000E866F000E876F3475
:101C3100EF0EF0FF0E8427FF0E8523FF0E8623FF94
:101C41000E872384290AE1852908E1862906E1878F
:101C510029D8A42EEF0EF030EF0EF0B3EF0DF034D3
:101C6100EF0EF059EF0CF00001AB51D8B43BEF0E81
:101C7100F03DEF0EF060EF0EF0010E37EC03F000D7
:101C810001CE6FB251130D000EF324076E020EF454
:101C910020086E810E096E92EC02F00001B2511320
:101CA1000D130EF324076E020EF420086EC10E0907
:101CB1006E92EC02F0010E0001AA6F000EAB6FAA4A
:101CC10051D8B466EF0EF068EF0EF03BEF0FF00065
:101CD1000E37EC03F00001EC6F0B0EEC19D8A47475
:101CE100EF0EF076EF0EF078EF0EF0994B9A2B0C89
:101CF1000EEC19D8A47FEF0EF081EF0EF083EF0EFA
:101D0100F0974B982BF40E995D010E9A59D8B08C2F
:101D1100EF0EF08EEF0EF0BEEF0EF099519A11D842
:101D2100B495EF0EF097EF0EF0BEEF0EF0EC29D860
:101D3100A49DEF0EF09FEF0EF0BEEF0EF0000E012E
:101D41006E010ED1EC01F0800E0F6E200E44EC01FD
:101D5100F0C00E0F6E2A0E44EC01F0000E00019A45
:101D61006F000E996F040EB261B9EF0EF0BBEF0E6A
:101D7100F0DEEF0EF0B22BDEEF0EF0F50E995D0105
:101D81000E9A59D8A0C7EF0EF0C9EF0EF0DEEF0E94
:101D9100F0EC29D8A4CFEF0EF0D1EF0EF0DEEF0E6C
:101DA100F0030EAE6F000E9A6F000E996F000E01D8
:101DB1006E010ED1EC01F0B2C0A8F0F40E00019753
:101DC1005D010E9859D8B0E8EF0EF0EAEF0EF01A67
:101DD100EF0FF097519811D8B4F1EF0EF0F3EF0E29
:101DE100F01AEF0FF0EC29D8A4F9EF0EF0FBEF0E8B
:101DF100F01AEF0FF0000E016E010ED1EC01F08030
:101E01000E0F6E2A0E44EC01F0C00E0F6E200E4430
:101E1100EC01F0000E0001986F000E976FB251D8DF
:101E2100B415EF0FF017EF0FF038EF0FF0B20738DE
:101E3100EF0FF0F50E975D010E9859D8A023EF0F23
:101E4100F025EF0FF038EF0FF0EC29D8A42BEF0FAE
:101E5100F02DEF0FF038EF0FF0000E986F000E9796
:101E61006F000EAE6F000E016E010ED1EC01F0009D
:101E71000E0001AA6FA951D8B441EF0FF043EF0F43
:101E8100F07CEF0FF059EF0FF0010EA66F7AEF0F14
:101E9100F0010EA56F7AEF0FF0010EA46F7AEF0F2C
:101EA100F0010EA36F7AEF0FF0010EA26F7AEF0F20
:101EB100F0A851496E4A6A4A50000AD8B463EF0F3C
:101EC100F07AEF0FF04950000AD8B445EF0FF00156
:101ED1000AD8B449EF0FF0030AD8B44DEF0FF0015F
:101EE1000AD8B451EF0FF0070AD8B455EF0FF07AC2
:101EF100EF0FF0000EA96FA651D8B482EF0FF08456
:101F0100EF0FF078EF11F0000E37EC03F0496E4956
:101F1100500001916F926BB051D8A492EF0FF094E1
:101F2100EF0FF07FEF10F0A751110D000EF324D940
:101F31006E010EF420DA6EA7510A0DF350A5EC01E3
:101F4100F0DF6E0001A751110D010EF324D96E01CE
:101F51000EF420DA6EA7510A0DF328A5EC01F0DF8B
:101F61006E0001A751110D020EF324D96E010EF47A
:101F710020DA6E3A0EDF6EA751110D030EF324D94C
:101F81006E010EF420DA6EA7510A0DF350020FA56F
:101F9100EC01F0DF6E0001A751110D040EF324D9FD
:101FA1006E010EF420DA6EA7510A0DF350030FA54E
:101FB100EC01F0DF6E0001A751110D050EF324D9DC
:101FC1006E010EF420DA6E3A0EDF6EA751110D0686
:101FD1000EF324D96E010EF420DA6EA7510A0DF327
:101FE10050040FA5EC01F0DF6E0001A751110D07A0
:101FF1000EF324D96E010EF420DA6EA7510A0DF307
:1020010050050FA5EC01F0DF6E0001A751110D087D
:102011000EF324D96E010EF420DA6E200EDF6EA7C6
:1020210051110D090EF324D96E010EF420DA6E2040
:102031000EDF6EA751110D0A0EF324D96E010EF4B5
:1020410020DA6EA7510A0DF350060FA5EC01F0DF5F
:102051006E0001A751110D0B0EF324D96E010EF480
:1020610020DA6EA7510A0DF350070FA5EC01F0DF3E
:102071006E0001A751110D0C0EF324D96E010EF45F
:1020810020DA6E200EDF6EA751110D0D0EF324D94B
:102091006E010EF420DA6EA7510A0DF350080FA558
:1020A100EC01F0DF6E0001A751110D0E0EF324D9E2
:1020B1006E010EF420DA6EA7510A0DF350090FA537
:1020C100EC01F0DF6E890E076E2F0E086E800E098F
:1020D1006E92EC02F0C00E0F6E0001A751300F445A
:1020E100EC01F00001A751110D000EF324076E0160
:1020F1000EF420086EC10E096E92EC02F00001B0E0
:1021010005D8A486EF10F088EF10F0BFEF10F0248F
:102111000E076E2F0E086E800E096E92EC02F0E033
:102121000E076E2E0E086EC00E096E92EC02F000C4
:102131000E0001806F350E816F0C0E826F000E83D1
:102141006FFF0E8027FF0E8123FF0E8223FF0E8378
:102151002380290AE1812908E1822906E18329D81E
:10216100A4B5EF10F0B7EF10F0A1EF10F0000E01E1
:102171006E010ED1EC01F0020E0001AE6F0B0E915B
:10218100199211D8A4C7EF10F0C9EF10F0CBEF10DE
:10219100F0954B962B0C0E91199211D8A4D3EF10F8
:1021A100F0D5EF10F0E8EF10F0934B942B94510918
:1021B100E1C90E935DD8A0E0EF10F0E2EF10F0E876
:1021C100EF10F0020EAE6F000E946F000E936F963B
:1021D1005107E1C80E955DD8B0F1EF10F0F3EF10A3
:1021E100F014EF11F095519611D8B4FAEF10F0FCFC
:1021F100EF10F014EF11F091299211D8A403EF110F
:10220100F005EF11F014EF11F0000E966F000E952E
:102211006F0A0EA7610FEF11F011EF11F02CEF1102
:10222100F0A72B2CEF11F0965109E1C90E955DD85D
:10223100A01DEF11F01FEF11F02CEF11F091299279
:1022410011D8A426EF11F028EF11F02CEF11F000B6
:102251000E966F000E956F945107E1C80E935DD8ED
:10226100B035EF11F037EF11F056EF11F0935194B3
:1022710011D8B43EEF11F040EF11F056EF11F0918B
:10228100299211D8A447EF11F049EF11F056EF113F
:10229100F0000E946F000E936FA751D8B453EF1155
:1022A100F055EF11F056EF11F0A707945109E1C96C
:1022B1000E935DD8A05FEF11F061EF11F076EF1191
:1022C100F091299211D8A468EF11F06AEF11F0761C
:1022D100EF11F0000E016E010ED1EC01F0020E00C3
:1022E10001AE6F000E946F000E936F000EA66FA1EA
:1022F10051D8B47EEF11F080EF11F026EF12F0B358
:10230100C060F0B4C061F0B6C062F0B7C063F0B9AC
:10231100C064F0BAC065F09BC001F09CC002F0003F
:102321000E046E030E036E7DEC01F0AA0E0124D99A
:102331006E010E0220DA6EDF500001666F9BC00154
:10234100F09CC002F0000E046E030E036E7DEC01E2
:10235100F0AB0E0124D96E010E0220DA6EDF5000BF
:1023610001676F000E336E000E346E400E356E4203
:102371000E366EAE0E1A6E470E1B6E250E1C6E418A
:102381000E1D6EB151086E096A0A6A0B6A010ED7F9
:10239100EC05F008C016F009C017F00AC018F00BE0
:1023A100C019F0B1EC06F016C02FF017C030F018CC
:1023B100C031F019C032F07EEC08F02FC03FF03090
:1023C100C040F031C041F032C042F0D0EC04F03FE7
:1023D100500001686FB1C009F00A6A000E0C6E0A64
:1023E1000E0B6E16EC04F00950300F0001696F00FE
:1023F1000E6A6F000EE96F090EE96502EF12F00433
:10240100EF12F006EF12F018EF12F0600EE925D985
:102411006EDA6A000EDA22DF50026EAF510A0DF356
:1024210050E925EEEC01F00001E92BFCEF11F0AFD2
:102431002B0A0EAF19D8A420EF12F022EF12F024CC
:10244100EF12F0000EAF6F000EA16FA451D8B42CA3
:10245100EF12F02EEF12F06BEF12F0010EB06FD60B
:102461000E076E2F0E086E800E096E92EC02F0CBF5
:102471000E076E2F0E086EC00E096E92EC02F00070
:102481000E0001B26F000E7C6F350E7D6F0C0E7E5B
:102491006F000E7F6FFF0E7C27FF0E7D23FF0E7EE8
:1024A10023FF0E7F237C290AE17D2908E17E29068D
:1024B100E17F29D8A45FEF12F061EF12F04BEF1228
:1024C100F0000E016E010ED1EC01F0020E0001AE22
:1024D1006F000EA46FA251D8B471EF12F073EF1216
:1024E100F02AEF14F0010E37EC03F00001E66F045F
:1024F1000E9E617EEF12F080EF12F0EBEF12F037DB
:102501000E076E2F0E086E800E096E92EC02F00B14
:102511000E0001E619D8A490EF12F092EF12F0A488
:10252100EF12F0D90E9E25D96EDA6A000EDA223149
:102531000EDF6E9E51C00F0F6E2A0E44EC01F000AB
:10254100019E2BBDEF12F00C0EE619D8A4ABEF12D1
:10255100F0ADEF12F0BDEF12F0D90E9E25D96EDA73
:102561006A000EDA22300EDF6E9E51C00F0F6E2A06
:102571000E44EC01F0A0EF12F0040E9E19D8A4C491
:10258100EF12F0C6EF12F027EF14F0A00E786F866D
:102591000E796F010E7A6F000E7B6FFF0E7827FFA9
:1025A1000E7923FF0E7A23FF0E7B2378290AE17926
:1025B1002908E17A2906E17B29D8A4E2EF12F0E4A7
:1025C100EF12F0CEEF12F0000E016E010ED1EC0110
:1025D100F027EF14F0040E9E19D8A4F2EF12F0F4D4
:1025E100EF12F027EF14F0D90E9E25D96EDA6A00AA
:1025F1000EDA22000EDF6E350E076E2F0E086E808A
:102601000E096E92EC02F0040E00019D610BEF13B6
:10261100F00DEF13F06FEF13F00B0EE619D8A414C1
:10262100EF13F016EF13F028EF13F0CF0E9D25D91D
:102631006EDA6A000EDA22310EDF6E9D51C00F0F85
:102641006E2A0E44EC01F000019D2B41EF13F00CBA
:102651000EE619D8A42FEF13F031EF13F041EF1369
:10266100F0CF0E9D25D96EDA6A000EDA22300EDF28
:102671006E9D51C00F0F6E2A0E44EC01F024EF1332
:10268100F0040E9D19D8A448EF13F04AEF13F02778
:10269100EF14F0A00E786F860E796F010E7A6F003D
:1026A1000E7B6FFF0E7827FF0E7923FF0E7A23FF33
:1026B1000E7B2378290AE1792908E17A2906E17B51
:1026C10029D8A466EF13F068EF13F052EF13F0006E
:1026D1000E016E010ED1EC01F027EF14F0040E9DF6
:1026E10019D8A476EF13F078EF13F027EF14F0CF99
:1026F1000E9D25D96EDA6A000EDA22000EDF6ED940
:102701000E016E000E026ECF0E036E000E046EC837
:10271100EC02F001500210D8A491EF13F093EF13E3
:10272100F0ECEF13F0000E016E010ED1EC01F0A5FB
:102731000E076E2F0E086E800E096E92EC02F0CB22
:102741000E076E2F0E086EC00E096E92EC02F0009D
:102751000E0001EA6F030EEA65B1EF13F0B3EF1358
:10276100F0B5EF13F0C4EF13F0D90EEA25D96EDA04
:102771006A000EDA22DF50026EEA51EEEC01F0003F
:1027810001EA2BABEF13F0000E786F350E796F0C69
:102791000E7A6F000E7B6FFF0E7827FF0E7923FFF5
:1027A1000E7A23FF0E7B2378290AE1792908E17A41
:1027B1002906E17B29D8A4E0EF13F0E2EF13F0CC76
:1027C100EF13F0000E016E010ED1EC01F0000E00CE
:1027D10001AE6F27EF14F0A50E076E2F0E086E8065
:1027E1000E096E92EC02F0F30E076E2F0E086EC00A
:1027F1000E096E92EC02F0000E00019E6F000E9D1C
:102801006F000E786F350E796F0C0E7A6F000E7BAC
:102811006FFF0E7827FF0E7923FF0E7A23FF0E7BC1
:102821002378290AE1792908E17A2906E17B29D867
:10283100A41DEF14F01FEF14F009EF14F0000E01C6
:102841006E010ED1EC01F0020E0001AE6F000E0020
:1028510001A26FA551D8B430EF14F032EF14F0DEBD
:10286100EF14F020EEBCF0100EDE6AE806FDE2B0D7
:1028710051D8A43EEF14F040EF14F0AEEF14F00085
:102881000EE46F000EE36FE4BF50EF14F0E4510962
:10289100E10A0EE35DD8A050EF14F052EF14F054AA
:1028A100EF14F075EF14F0E3510A0DF350A5EC01AC
:1028B100F00001BC6FE3510A0DF328A5EC01F00013
:1028C10001BD6F3A0EBE6FFB0E026E2F0E036E310D
:1028D100EC02F0BC0E026E000E036E31EC02F00051
:1028E10001E34BE42B44EF14F0DF0E076E2E0E08CC
:1028F1006E810E096E92EC02F0F00E076E2E0E083C
:102901006EC00E096E92EC02F0000E0001746F357C
:102911000E756F0C0E766F000E776FFF0E7427FF2A
:102921000E7523FF0E7623FF0E772374290AE175B6
:102931002908E1762906E17729D8A4A2EF14F0A4A9
:10294100EF14F08EEF14F0000E016E010ED1EC01C8
:10295100F0020E0001AE6FDCEF14F0130E076E2FC4
:102961000E086E810E096E92EC02F0000E000174E9
:102971006F350E756F0C0E766F000E776FFF0E744C
:1029810027FF0E7523FF0E7623FF0E772374290A86
:10299100E1752908E1762906E17729D8A4D3EF1456
:1029A100F0D5EF14F0BFEF14F0000E016E010ED15F
:1029B100EC01F0A9EF14F0000EA56FA051D8B4E41A
:1029C100EF14F0E6EF14F028EF15F0020E90EC0191
:1029D100F00001886F010E90EC01F00001896F0099
:1029E1000E90EC01F000018A6F88ADFAEF14F0FC53
:1029F100EF14F007EF15F088390F0B010B300FB30F
:102A01006F88510F0B300FB46F10EF15F088390F2D
:102A11000B030B300FB36F88510F0B300FB46F3AAC
:102A21000EB56F89390F0B0F0B300FB66F89510F30
:102A31000B300FB76F3A0EB86F8A390F0B0F0B308F
:102A41000FB96F8A510F0B300FBA6F000EBB6FA316
:102A510051D8B42EEF15F030EF15F011EF0BF00057
:102A61000EDF6F000EE06F000EE16FB30EEE6F0030
:102A71000EEF6F000E37EC03F00001ED6FB30E07A0
:102A81006E000E086EC00E096E92EC02F00C0E0084
:102A910001ED19D8A44FEF15F051EF15F053EF15D3
:102AA100F08D4B8E2B0B0EED19D8A45AEF15F05C5F
:102AB100EF15F05EEF15F08B4B8C2B8E5107E1C8B3
:102AC1000E8D5DD8B067EF15F069EF15F090EF1539
:102AD100F08D518E11D8B470EF15F072EF15F090A2
:102AE100EF15F0ED29D8A478EF15F07AEF15F090F5
:102AF100EF15F0000E8E6F000E8D6F8F4B902B8FA8
:102B0100C001F090C002F0000E046E030E036E606F
:102B1100EC02F001C08FF002C090F0A9EF15F08E29
:102B21005109E1C90E8D5DD8A099EF15F09BEF1504
:102B3100F0A9EF15F0ED29D8A4A1EF15F0A3EF1539
:102B4100F0A9EF15F0000E8E6F000E8D6F020EAE24
:102B51006F00018C5107E1C80E8B5DD8B0B3EF1542
:102B6100F0B5EF15F0C0EF16F08B518C11D8B4BC55
:102B7100EF15F0BEEF15F0C0EF16F0ED29D8A4C4A3
:102B8100EF15F0C6EF15F0C0EF16F0000E8C6F00D8
:102B91000E8B6F8F519011D8A4D1EF15F0D3EF1593
:102BA100F021EF16F020EE01F0EE51D926EF51DAC7
:102BB10022DF2A20EE01F0EE51D926EF51DA223937
:102BC1000EDF64E6EF15F0E8EF15F0F5EF15F020F4
:102BD100EE01F0EE51D926EF51DA22300EDF6EEE22
:102BE100C0D9FFEFC0DAFFDF2AEEC0D9FFEFC0DAAC
:102BF100FF320EDE18D8A400EF16F002EF16F068CF
:102C0100EF17F020EE01F0EE51D926EF51DA223420
:102C11000EDE18D8A40FEF16F011EF16F068EF17BB
:102C2100F0EEC0D9FFEFC0DAFF300EDF6E20EE010B
:102C3100F0EE51D926EF51DA22300EDF6E68EF1730
:102C4100F08F059011D8A428EF16F02AEF16F06F37
:102C5100EF16F020EE04F0EE51D926EF51DA22DF23
:102C61002A20EE04F0EE51D926EF51DA22390EDF97
:102C7100643DEF16F03FEF16F04EEF16F020EE0434
:102C8100F0EE51D926EF51DA22300EDF6E20EE033D
:102C9100F0EE51D926EF51DA22DF2A20EE03F0EED1
:102CA10051D926EF51DA22360EDE18D8A45BEF1681
:102CB100F05DEF16F068EF17F020EE03F0EE51D95A
:102CC10026EF51DA22300EDF6E20EE04F0EE51D9FC
:102CD10026EF51DA22300EDF6E68EF17F0020E8F09
:102CE100199011D8A477EF16F079EF16F0BEEF1610
:102CF100F020EE07F0EE51D926EF51DA22DF2A203B
:102D0100EE07F0EE51D926EF51DA22390EDF648C4D
:102D1100EF16F08EEF16F09DEF16F020EE07F0EEB5
:102D210051D926EF51DA22300EDF6E20EE06F0EE99
:102D310051D926EF51DA22DF2A20EE06F0EE51D9E1
:102D410026EF51DA22360EDE18D8A4AAEF16F0AC1F
:102D5100EF16F068EF17F020EE06F0EE51D926EFEE
:102D610051DA22300EDF6E20EE07F0EE51D926EF58
:102D710051DA22300EDF6E68EF17F068EF17F08C32
:102D81005109E1C90E8B5DD8A0C9EF16F0CBEF1642
:102D9100F068EF17F0ED29D8A4D1EF16F0D3EF16B4
:102DA100F068EF17F08C5109E1C90E8B5DD8A0DCFA
:102DB100EF16F0DEEF16F068EF17F0000E8C6F00E3
:102DC1000E8B6F680E076E2F0E086E800E096E92C5
:102DD100EC02F0DD0E076E2E0E086EC00E096E922B
:102DE100EC02F0EEC0D9FFEFC0DAFFDF50496E49C7
:102DF10038F00B0001DF6F20EE01F0EE51D926EF24
:102E010051DA22DF50D00FDF11DF6FDFC002F00295
:102E11000E5EEC01F0000120EE03F0EE51D926EF39
:102E210051DA22DF50496E4938F00BE06F20EE0491
:102E3100F0EE51D926EF51DA22DF50D00FE011E048
:102E41006FE0C002F0010E5EEC01F0000120EE0621
:102E5100F0EE51D926EF51DA22DF50496E4938F0B0
:102E61000BE16F20EE07F0EE51D926EF51DA22DFA8
:102E710050D00FE111E16FE1C002F0000E5EEC01F4
:102E8100F0400E0001706F0D0E716F030E726F0036
:102E91000E736FFF0E7027FF0E7123FF0E7223FF5B
:102EA1000E732370290AE1712908E1722906E17381
:102EB10029D8A45EEF17F060EF17F04AEF17F00082
:102EC1000E016E010ED1EC01F0000E0001AE6F009B
:102ED1000EA36F11EF0BF000EF00F0002020202077
:102EE10020202020202020202020202020200044DD
:102EF1004F574E4C4F414420434F4D504C45544544
:102F0100005F454E5445525F50415353574F524411
:102F110020004C4F47532041524520434C454152DC
:102F21004544004C4F47535F4152455F434C454137
:102F3100524544005245454E544552205041535349
:102F4100574F524400454E54455245445F504153FA
:102F510053574F52440054494D45202020202045CD
:102F6100562020205350005345542054494D4520AC
:102F710053554343455353005F454E5445525F50AB
:102F8100415353574F5244004C6F6720202020205B
:102F9100202020202020005553455220424C4F43F1
:102FA1004B4544005345542050415353574F5244CD
:102FB10000776169742074776F206D696E005355D5
:102FC100434345535346554C4C0053554343455396
:102FD1005346554C00434C454152204C4F470054F9
:102FE100525920414741494E00747279206C6566FF
:0E2FF10074004641494C555245000A0D00003F
:0130000001CE
:020000040020DA
:08000000FFFFFFFFFFFFFFFF00
:020000040030CA
:0E000000FF071F1FFF8285FF0FC00FE00F409C
:00000001FF
